{
  "contractName": "GasFeeSupport",
  "abi": [
    {
      "inputs": [
        {
          "internalType": "address[]",
          "name": "_specialAddresses",
          "type": "address[]"
        }
      ],
      "stateMutability": "nonpayable",
      "type": "constructor"
    },
    {
      "inputs": [],
      "name": "organizer",
      "outputs": [
        {
          "internalType": "address payable",
          "name": "",
          "type": "address"
        }
      ],
      "stateMutability": "view",
      "type": "function",
      "constant": true
    },
    {
      "inputs": [
        {
          "internalType": "uint256",
          "name": "",
          "type": "uint256"
        }
      ],
      "name": "specialAddresses",
      "outputs": [
        {
          "internalType": "address",
          "name": "",
          "type": "address"
        }
      ],
      "stateMutability": "view",
      "type": "function",
      "constant": true
    },
    {
      "stateMutability": "payable",
      "type": "receive",
      "payable": true
    },
    {
      "inputs": [
        {
          "internalType": "address",
          "name": "_address",
          "type": "address"
        }
      ],
      "name": "addSpecialAddress",
      "outputs": [],
      "stateMutability": "nonpayable",
      "type": "function"
    },
    {
      "inputs": [
        {
          "internalType": "address payable[]",
          "name": "participants",
          "type": "address[]"
        },
        {
          "internalType": "uint256",
          "name": "amount",
          "type": "uint256"
        }
      ],
      "name": "sendGasFee",
      "outputs": [],
      "stateMutability": "nonpayable",
      "type": "function"
    }
  ],
  "bytecode": "0x60806040523480156200001157600080fd5b5060405162000cb338038062000cb3833981810160405281019062000037919062000333565b336000806101000a81548173ffffffffffffffffffffffffffffffffffffffff021916908373ffffffffffffffffffffffffffffffffffffffff16021790555080600190805190602001906200008f92919062000097565b505062000384565b82805482825590600052602060002090810192821562000113579160200282015b82811115620001125782518260006101000a81548173ffffffffffffffffffffffffffffffffffffffff021916908373ffffffffffffffffffffffffffffffffffffffff16021790555091602001919060010190620000b8565b5b50905062000122919062000126565b5090565b5b808211156200014157600081600090555060010162000127565b5090565b6000604051905090565b600080fd5b600080fd5b600080fd5b6000601f19601f8301169050919050565b7f4e487b7100000000000000000000000000000000000000000000000000000000600052604160045260246000fd5b620001a9826200015e565b810181811067ffffffffffffffff82111715620001cb57620001ca6200016f565b5b80604052505050565b6000620001e062000145565b9050620001ee82826200019e565b919050565b600067ffffffffffffffff8211156200021157620002106200016f565b5b602082029050602081019050919050565b600080fd5b600073ffffffffffffffffffffffffffffffffffffffff82169050919050565b6000620002548262000227565b9050919050565b620002668162000247565b81146200027257600080fd5b50565b60008151905062000286816200025b565b92915050565b6000620002a36200029d84620001f3565b620001d4565b90508083825260208201905060208402830185811115620002c957620002c862000222565b5b835b81811015620002f65780620002e1888262000275565b845260208401935050602081019050620002cb565b5050509392505050565b600082601f83011262000318576200031762000159565b5b81516200032a8482602086016200028c565b91505092915050565b6000602082840312156200034c576200034b6200014f565b5b600082015167ffffffffffffffff8111156200036d576200036c62000154565b5b6200037b8482850162000300565b91505092915050565b61091f80620003946000396000f3fe6080604052600436106100435760003560e01c806317bfd3641461004f5780636120326514610078578063d966bb4f146100a3578063ee82301a146100e05761004a565b3661004a57005b600080fd5b34801561005b57600080fd5b5061007660048036038101906100719190610437565b610109565b005b34801561008457600080fd5b5061008d6101fd565b60405161009a9190610485565b60405180910390f35b3480156100af57600080fd5b506100ca60048036038101906100c591906104d6565b610221565b6040516100d79190610512565b60405180910390f35b3480156100ec57600080fd5b50610107600480360381019061010291906106b2565b610260565b005b60008054906101000a900473ffffffffffffffffffffffffffffffffffffffff1673ffffffffffffffffffffffffffffffffffffffff163373ffffffffffffffffffffffffffffffffffffffff1614610197576040517f08c379a000000000000000000000000000000000000000000000000000000000815260040161018e90610791565b60405180910390fd5b6001819080600181540180825580915050600190039060005260206000200160009091909190916101000a81548173ffffffffffffffffffffffffffffffffffffffff021916908373ffffffffffffffffffffffffffffffffffffffff16021790555050565b60008054906101000a900473ffffffffffffffffffffffffffffffffffffffff1681565b6001818154811061023157600080fd5b906000526020600020016000915054906101000a900473ffffffffffffffffffffffffffffffffffffffff1681565b6000805b6001805490508110156102fe5760018181548110610285576102846107b1565b5b9060005260206000200160009054906101000a900473ffffffffffffffffffffffffffffffffffffffff1673ffffffffffffffffffffffffffffffffffffffff163373ffffffffffffffffffffffffffffffffffffffff16036102eb57600191506102fe565b80806102f69061080f565b915050610264565b508061033f576040517f08c379a0000000000000000000000000000000000000000000000000000000008152600401610336906108c9565b60405180910390fd5b60005b83518110156103bf5783818151811061035e5761035d6107b1565b5b602002602001015173ffffffffffffffffffffffffffffffffffffffff166108fc849081150290604051600060405180830381858888f193505050501580156103ab573d6000803e3d6000fd5b5080806103b79061080f565b915050610342565b50505050565b6000604051905090565b600080fd5b600080fd5b600073ffffffffffffffffffffffffffffffffffffffff82169050919050565b6000610404826103d9565b9050919050565b610414816103f9565b811461041f57600080fd5b50565b6000813590506104318161040b565b92915050565b60006020828403121561044d5761044c6103cf565b5b600061045b84828501610422565b91505092915050565b600061046f826103d9565b9050919050565b61047f81610464565b82525050565b600060208201905061049a6000830184610476565b92915050565b6000819050919050565b6104b3816104a0565b81146104be57600080fd5b50565b6000813590506104d0816104aa565b92915050565b6000602082840312156104ec576104eb6103cf565b5b60006104fa848285016104c1565b91505092915050565b61050c816103f9565b82525050565b60006020820190506105276000830184610503565b92915050565b600080fd5b6000601f19601f8301169050919050565b7f4e487b7100000000000000000000000000000000000000000000000000000000600052604160045260246000fd5b61057b82610532565b810181811067ffffffffffffffff8211171561059a57610599610543565b5b80604052505050565b60006105ad6103c5565b90506105b98282610572565b919050565b600067ffffffffffffffff8211156105d9576105d8610543565b5b602082029050602081019050919050565b600080fd5b6105f881610464565b811461060357600080fd5b50565b600081359050610615816105ef565b92915050565b600061062e610629846105be565b6105a3565b90508083825260208201905060208402830185811115610651576106506105ea565b5b835b8181101561067a57806106668882610606565b845260208401935050602081019050610653565b5050509392505050565b600082601f8301126106995761069861052d565b5b81356106a984826020860161061b565b91505092915050565b600080604083850312156106c9576106c86103cf565b5b600083013567ffffffffffffffff8111156106e7576106e66103d4565b5b6106f385828601610684565b9250506020610704858286016104c1565b9150509250929050565b600082825260208201905092915050565b7f4f6e6c7920746865206f7267616e697a65722063616e20706572666f726d207460008201527f68697320616374696f6e00000000000000000000000000000000000000000000602082015250565b600061077b602a8361070e565b91506107868261071f565b604082019050919050565b600060208201905081810360008301526107aa8161076e565b9050919050565b7f4e487b7100000000000000000000000000000000000000000000000000000000600052603260045260246000fd5b7f4e487b7100000000000000000000000000000000000000000000000000000000600052601160045260246000fd5b600061081a826104a0565b91507fffffffffffffffffffffffffffffffffffffffffffffffffffffffffffffffff820361084c5761084b6107e0565b5b600182019050919050565b7f4f6e6c7920746865207370656369616c20616464726573732063616e2073656e60008201527f6420676173206665650000000000000000000000000000000000000000000000602082015250565b60006108b360298361070e565b91506108be82610857565b604082019050919050565b600060208201905081810360008301526108e2816108a6565b905091905056fea264697066735822122054423dd53271cac339c1f0f5e35924a59af34b14e78ef3a4e5763555fa98ac3f64736f6c63430008110033",
  "immutableReferences": {},
  "source": "// SPDX-License-Identifier: MIT\r\n\r\npragma solidity >=0.4.22 <0.9.0;\r\n\r\ncontract GasFeeSupport {\r\n    address payable public organizer;\r\n    address[] public specialAddresses;\r\n\r\n    constructor(address[] memory _specialAddresses) {\r\n        organizer = payable(msg.sender);\r\n        specialAddresses = _specialAddresses;\r\n    }\r\n\r\n    modifier onlyOrganizer() {\r\n        require(msg.sender == organizer, \"Only the organizer can perform this action\");\r\n        _;\r\n    }\r\n\r\n     modifier onlySpecialAddress() {\r\n        bool isSpecialAddress = false;\r\n        for (uint i = 0; i < specialAddresses.length; i++) {\r\n            if (msg.sender == specialAddresses[i]) {\r\n                isSpecialAddress = true;\r\n                break;\r\n            }\r\n        }\r\n        require(isSpecialAddress, \"Only the special address can send gas fee\");\r\n        _;\r\n    }\r\n\r\n      function addSpecialAddress(address _address) public onlyOrganizer {\r\n        specialAddresses.push(_address);\r\n    }\r\n\r\n    function sendGasFee(address payable[] memory participants, uint256 amount) public onlySpecialAddress {\r\n\r\n        for(uint i=0; i<participants.length; i++) {\r\n            participants[i].transfer(amount);\r\n        }\r\n    }\r\n\r\n    receive() external payable {}\r\n}",
  "sourcePath": "C:\\Users\\User\\Desktop\\gas fee subsidize\\MyTruffleProject\\contracts\\GasfeeSuppot.sol",
  "compiler": {
    "name": "solc",
    "version": "0.8.17+commit.8df45f5f.Emscripten.clang"
  },
  "schemaVersion": "3.4.15",
  "updatedAt": "2023-08-31T21:10:45.311Z",
  "networkType": "ethereum",
  "devdoc": {
    "kind": "dev",
    "methods": {},
    "version": 1
  },
  "userdoc": {
    "kind": "user",
    "methods": {},
    "version": 1
  }
}